:100000000C9434000C9449000C9449000C94490061
:100010000C9449000C9449000C9449000C9449003C
:100020000C9449000C9449000C9449000C9449002C
:100030000C9449000C9449000C9449000C9449001C
:100040000C9449000C9449000C9449000C9449000C
:100050000C9449000C9449000C9449000C944900FC
:100060000C9449000C94490011241FBECFEFD8E036
:10007000DEBFCDBF11E0A0E0B1E0E4E2F3E002C0FA
:1000800005900D92AC31B107D9F70E9434010C9460
:1000900090010C94000087FF02C05F9A01C05F9836
:1000A00086FF02C05E9A01C05E9885FF02C05D9A1D
:1000B00001C05D9884FF02C05C9A01C05C982A98D8
:1000C0002B9AEFE3FFE13197F1F700C000002B9886
:1000D000EFE3FFE13197F1F700C0000083FF02C0BA
:1000E0005F9A01C05F9882FF02C05E9A01C05E986D
:1000F00081FF02C05D9A01C05D9880FF02C05C9ADA
:1001000001C05C982A982B9A8FE39FE10197F1F741
:1001100000C000002B98EFE3FFE13197F1F700C03A
:100120000000089587FF02C05F9A01C05F9886FFB4
:1001300002C05E9A01C05E9885FF02C05D9A01C050
:100140005D9884FF02C05C9A01C05C9895B19C6088
:1001500095B9EFE3FFE13197F1F700C000002B986C
:10016000EFE3FFE13197F1F700C0000083FF02C029
:100170005F9A01C05F9882FF02C05E9A01C05E98DC
:1001800081FF02C05D9A01C05D9880FF02C05C9A49
:1001900001C05C9885B18C6085B98FE39FE10197C0
:1001A000F1F700C000002B98EFE3FFE13197F1F782
:1001B00000C00000089584B18C6084B98AB1806F5A
:1001C0008AB98FE39FE10197F1F700C0000081E059
:1001D0000E944B0082E00E944B0088E20E944B008C
:1001E00086E00E944B008CE00E944B0080E80C945B
:1001F0004B00CF93DF93EC018991882349F00E9453
:1002000092008FE39FE10197F1F700C00000F4CF67
:10021000DF91CF9108950F931F93CF93DF938C01BC
:100220006130710569F024F4672B79F480E80BC024
:100230006230710539F06330710539F484ED03C023
:1002400080EC01C084E90E944B00C0E0D0E0C01700
:10025000D1072CF484E10E944B002196F8CFDF9166
:10026000CF911F910F9108950E94DB0060E070E034
:1002700080E090E00E940B0180E091E00E94F90094
:1002800060E070E083E090E00E940B0184E091E088
:100290000E94F90060E070E088E090E00E940B01AD
:1002A00087E091E00E94F90060E070E08BE090E070
:1002B0000E940B018BE091E00E94F90061E070E088
:1002C00080E090E00E940B018EE091E00E94F90036
:1002D00061E070E083E090E00E940B0182E191E038
:1002E0000E94F90061E070E088E090E00E940B015C
:1002F00085E191E00E94F90061E070E08BE090E020
:100300000E940B0189E191E00E94F9002FEF87EA3A
:1003100091E6215080409040E1F700C00000A6CF58
:04032000F894FFCF7F
:1003240042313D0032380042323D0032390042331E
:0C0334003D0033330042343D00383900F6
:00000001FF
